{
  "contractName": "Sentinel",
  "abi": [
    {
      "inputs": [
        {
          "internalType": "address",
          "name": "_coordinatorAddress",
          "type": "address"
        }
      ],
      "stateMutability": "nonpayable",
      "type": "constructor"
    },
    {
      "anonymous": false,
      "inputs": [
        {
          "indexed": true,
          "internalType": "address",
          "name": "_user",
          "type": "address"
        },
        {
          "indexed": false,
          "internalType": "string",
          "name": "_fileHash",
          "type": "string"
        },
        {
          "indexed": false,
          "internalType": "uint256",
          "name": "_time",
          "type": "uint256"
        }
      ],
      "name": "fileAdded",
      "type": "event"
    },
    {
      "anonymous": false,
      "inputs": [
        {
          "indexed": true,
          "internalType": "uint256",
          "name": "taskID",
          "type": "uint256"
        },
        {
          "indexed": false,
          "internalType": "string",
          "name": "_modelHash",
          "type": "string"
        },
        {
          "indexed": false,
          "internalType": "uint256",
          "name": "_time",
          "type": "uint256"
        }
      ],
      "name": "modelUpdated",
      "type": "event"
    },
    {
      "anonymous": false,
      "inputs": [
        {
          "indexed": true,
          "internalType": "uint256",
          "name": "taskID",
          "type": "uint256"
        },
        {
          "indexed": true,
          "internalType": "address",
          "name": "_user",
          "type": "address"
        },
        {
          "indexed": false,
          "internalType": "string",
          "name": "_modelHash",
          "type": "string"
        },
        {
          "indexed": false,
          "internalType": "uint256",
          "name": "_amt",
          "type": "uint256"
        },
        {
          "indexed": false,
          "internalType": "uint256",
          "name": "_time",
          "type": "uint256"
        }
      ],
      "name": "newTaskCreated",
      "type": "event"
    },
    {
      "inputs": [
        {
          "internalType": "uint256",
          "name": "",
          "type": "uint256"
        }
      ],
      "name": "SentinelTasks",
      "outputs": [
        {
          "internalType": "uint256",
          "name": "taskID",
          "type": "uint256"
        },
        {
          "internalType": "uint256",
          "name": "currentRound",
          "type": "uint256"
        },
        {
          "internalType": "uint256",
          "name": "totalRounds",
          "type": "uint256"
        },
        {
          "internalType": "uint256",
          "name": "cost",
          "type": "uint256"
        }
      ],
      "stateMutability": "view",
      "type": "function",
      "constant": true
    },
    {
      "inputs": [
        {
          "internalType": "address",
          "name": "",
          "type": "address"
        },
        {
          "internalType": "uint256",
          "name": "",
          "type": "uint256"
        }
      ],
      "name": "UserFiles",
      "outputs": [
        {
          "internalType": "string",
          "name": "",
          "type": "string"
        }
      ],
      "stateMutability": "view",
      "type": "function",
      "constant": true
    },
    {
      "inputs": [
        {
          "internalType": "address",
          "name": "",
          "type": "address"
        },
        {
          "internalType": "uint256",
          "name": "",
          "type": "uint256"
        }
      ],
      "name": "UserTaskIDs",
      "outputs": [
        {
          "internalType": "uint256",
          "name": "",
          "type": "uint256"
        }
      ],
      "stateMutability": "view",
      "type": "function",
      "constant": true
    },
    {
      "inputs": [
        {
          "internalType": "address",
          "name": "_coordinatorAddress",
          "type": "address"
        }
      ],
      "name": "updateCoordinator",
      "outputs": [],
      "stateMutability": "nonpayable",
      "type": "function"
    },
    {
      "inputs": [
        {
          "internalType": "string",
          "name": "_modelHash",
          "type": "string"
        },
        {
          "internalType": "uint256",
          "name": "_rounds",
          "type": "uint256"
        }
      ],
      "name": "createTask",
      "outputs": [],
      "stateMutability": "payable",
      "type": "function",
      "payable": true
    },
    {
      "inputs": [
        {
          "internalType": "uint256",
          "name": "_taskID",
          "type": "uint256"
        },
        {
          "internalType": "string",
          "name": "_modelHash",
          "type": "string"
        },
        {
          "internalType": "address payable",
          "name": "computer",
          "type": "address"
        }
      ],
      "name": "updateModelForTask",
      "outputs": [],
      "stateMutability": "nonpayable",
      "type": "function"
    },
    {
      "inputs": [
        {
          "internalType": "uint256",
          "name": "_taskID",
          "type": "uint256"
        }
      ],
      "name": "getTaskHashes",
      "outputs": [
        {
          "internalType": "string[]",
          "name": "",
          "type": "string[]"
        }
      ],
      "stateMutability": "view",
      "type": "function",
      "constant": true
    },
    {
      "inputs": [],
      "name": "getTaskCount",
      "outputs": [
        {
          "internalType": "uint256",
          "name": "",
          "type": "uint256"
        }
      ],
      "stateMutability": "view",
      "type": "function",
      "constant": true
    },
    {
      "inputs": [],
      "name": "getTasksOfUser",
      "outputs": [
        {
          "internalType": "uint256[]",
          "name": "",
          "type": "uint256[]"
        }
      ],
      "stateMutability": "view",
      "type": "function",
      "constant": true
    },
    {
      "inputs": [
        {
          "internalType": "string",
          "name": "_fileHash",
          "type": "string"
        }
      ],
      "name": "storeFile",
      "outputs": [],
      "stateMutability": "nonpayable",
      "type": "function"
    },
    {
      "inputs": [],
      "name": "getFiles",
      "outputs": [
        {
          "internalType": "string[]",
          "name": "",
          "type": "string[]"
        }
      ],
      "stateMutability": "view",
      "type": "function",
      "constant": true
    }
  ],
  "bytecode": "0x6080604052600160025534801561001557600080fd5b506040516110b63803806110b683398101604081905261003491610067565b60008054336001600160a01b031991821617909155600180549091166001600160a01b0392909216919091179055610095565b600060208284031215610078578081fd5b81516001600160a01b038116811461008e578182fd5b9392505050565b611012806100a46000396000f3fe60806040526004361061009c5760003560e01c806375a269a51161006457806375a269a51461015e57806387ec75ac1461017e578063c17a340e146101ab578063df8fc3fd146101c0578063e602406a146101e2578063f9f94e34146102025761009c565b806304fe2b34146100a15780630a07c37b146100b65780632da96d73146100ef57806335dbfc19146101115780636946c5e914610131575b600080fd5b6100b46100af366004610cd1565b610222565b005b3480156100c257600080fd5b506100d66100d1366004610d14565b6103c6565b6040516100e69493929190610fac565b60405180910390f35b3480156100fb57600080fd5b506101046103ef565b6040516100e69190610dd0565b34801561011d57600080fd5b5061010461012c366004610d14565b6104d2565b34801561013d57600080fd5b5061015161014c366004610c6b565b6105c0565b6040516100e69190610fa3565b34801561016a57600080fd5b506100b4610179366004610d2c565b6105ee565b34801561018a57600080fd5b5061019e610199366004610c6b565b610761565b6040516100e69190610e74565b3480156101b757600080fd5b50610151610815565b3480156101cc57600080fd5b506101d561082b565b6040516100e69190610e30565b3480156101ee57600080fd5b506100b46101fd366004610c96565b61088c565b34801561020e57600080fd5b506100b461021d366004610c4f565b610906565b600a811061024b5760405162461bcd60e51b815260040161024290610f33565b60405180910390fd5b34610254610a52565b6040518060a001604052806002548152602001600181526020018481526020018381526020018467ffffffffffffffff8111801561029157600080fd5b506040519080825280602002602001820160405280156102c557816020015b60608152602001906001900390816102b05790505b5081525090508381608001516000815181106102dd57fe5b602002602001018190525080600360006002548152602001908152602001600020600082015181600001556020820151816001015560408201518160020155606082015181600301556080820151816004019080519060200190610342929190610a81565b505033600081815260046020908152604080832060028054825460018101845592865293909420019190915590549051919250907fceb55fb99742a0d2305c686897f79e89483a9725c0f5493808c9a4787f2a875a906103a790889087904290610ea9565b60405180910390a36002546103bd90600161093f565b60025550505050565b600360208190526000918252604090912080546001820154600283015492909301549092919084565b336000908152600560209081526040808320805482518185028101850190935280835260609492939192909184015b828210156104c95760008481526020908190208301805460408051601f60026000196101006001871615020190941693909304928301859004850281018501909152818152928301828280156104b55780601f1061048a576101008083540402835291602001916104b5565b820191906000526020600020905b81548152906001019060200180831161049857829003601f168201915b50505050508152602001906001019061041e565b50505050905090565b606060036000838152602001908152602001600020600401805480602002602001604051908101604052809291908181526020016000905b828210156105b55760008481526020908190208301805460408051601f60026000196101006001871615020190941693909304928301859004850281018501909152818152928301828280156105a15780601f10610576576101008083540402835291602001916105a1565b820191906000526020600020905b81548152906001019060200180831161058457829003601f168201915b50505050508152602001906001019061050a565b505050509050919050565b600460205281600052604060002081815481106105d957fe5b90600052602060002001600091509150505481565b6001546001600160a01b0316331461060557600080fd5b6002548311156106275760405162461bcd60e51b815260040161024290610f7a565b60008381526003602052604081206001908101546106449161093f565b6000858152600360205260409020600201549091508111156106785760405162461bcd60e51b815260040161024290610ece565b6000848152600360205260409020600180820183905584916004019061069f90849061096b565b815481106106a957fe5b9060005260206000200190805190602001906106c6929190610ade565b50600084815260036020819052604090912060028101549101546001600160a01b038416916108fc916106f8916109ad565b6040518115909202916000818181858888f19350505050158015610720573d6000803e3d6000fd5b50837fb8b9b7420ce876fd147a9284d5eed5f709fc3faafb9e8cdf3c6ece72e002e8c78442604051610753929190610e87565b60405180910390a250505050565b6005602052816000526040600020818154811061077a57fe5b600091825260209182902001805460408051601f6002600019610100600187161502019094169390930492830185900485028101850190915281815294509092509083018282801561080d5780601f106107e25761010080835404028352916020019161080d565b820191906000526020600020905b8154815290600101906020018083116107f057829003601f168201915b505050505081565b60025460009061082690600161096b565b905090565b3360009081526004602090815260409182902080548351818402810184019094528084526060939283018282801561088257602002820191906000526020600020905b81548152602001906001019080831161086e575b5050505050905090565b336000908152600560209081526040822080546001810182559083529181902083516108bf939190910191840190610ade565b50336001600160a01b03167f77c930e75392bd2c336cb44341aea6a66f14d80ce4733ae9e1e08505a8e3277182426040516108fb929190610e87565b60405180910390a250565b6000546001600160a01b0316331461091d57600080fd5b600180546001600160a01b0319166001600160a01b0392909216919091179055565b6000828201838110156109645760405162461bcd60e51b815260040161024290610efc565b9392505050565b600061096483836040518060400160405280601e81526020017f536166654d6174683a207375627472616374696f6e206f766572666c6f7700008152506109ef565b600061096483836040518060400160405280601a81526020017f536166654d6174683a206469766973696f6e206279207a65726f000000000000815250610a1b565b60008184841115610a135760405162461bcd60e51b81526004016102429190610e74565b505050900390565b60008183610a3c5760405162461bcd60e51b81526004016102429190610e74565b506000838581610a4857fe5b0495945050505050565b6040518060a0016040528060008152602001600081526020016000815260200160008152602001606081525090565b828054828255906000526020600020908101928215610ace579160200282015b82811115610ace5782518051610abe918491602090910190610ade565b5091602001919060010190610aa1565b50610ada929150610b58565b5090565b828054600181600116156101000203166002900490600052602060002090601f016020900481019282601f10610b1f57805160ff1916838001178555610b4c565b82800160010185558215610b4c579182015b82811115610b4c578251825591602001919060010190610b31565b50610ada929150610b75565b80821115610ada576000610b6c8282610b8a565b50600101610b58565b5b80821115610ada5760008155600101610b76565b50805460018160011615610100020316600290046000825580601f10610bb05750610bce565b601f016020900490600052602060002090810190610bce9190610b75565b50565b600082601f830112610be1578081fd5b813567ffffffffffffffff80821115610bf8578283fd5b604051601f8301601f191681016020018281118282101715610c18578485fd5b604052828152925082848301602001861015610c3357600080fd5b8260208601602083013760006020848301015250505092915050565b600060208284031215610c60578081fd5b813561096481610fc7565b60008060408385031215610c7d578081fd5b8235610c8881610fc7565b946020939093013593505050565b600060208284031215610ca7578081fd5b813567ffffffffffffffff811115610cbd578182fd5b610cc984828501610bd1565b949350505050565b60008060408385031215610ce3578182fd5b823567ffffffffffffffff811115610cf9578283fd5b610d0585828601610bd1565b95602094909401359450505050565b600060208284031215610d25578081fd5b5035919050565b600080600060608486031215610d40578081fd5b83359250602084013567ffffffffffffffff811115610d5d578182fd5b610d6986828701610bd1565b9250506040840135610d7a81610fc7565b809150509250925092565b60008151808452815b81811015610daa57602081850181015186830182015201610d8e565b81811115610dbb5782602083870101525b50601f01601f19169290920160200192915050565b6000602080830181845280855180835260408601915060408482028701019250838701855b82811015610e2357603f19888603018452610e11858351610d85565b94509285019290850190600101610df5565b5092979650505050505050565b6020808252825182820181905260009190848201906040850190845b81811015610e6857835183529284019291840191600101610e4c565b50909695505050505050565b6000602082526109646020830184610d85565b600060408252610e9a6040830185610d85565b90508260208301529392505050565b600060608252610ebc6060830186610d85565b60208301949094525060400152919050565b602080825260149082015273105b1b08149bdd5b991cc810dbdb5c1b195d195960621b604082015260600190565b6020808252601b908201527f536166654d6174683a206164646974696f6e206f766572666c6f770000000000604082015260600190565b60208082526027908201527f4e756d626572206f6620526f756e64732073686f756c64206265206c6573732060408201526607468616e2031360cc1b606082015260800190565b6020808252600f908201526e125b9d985b1a590815185cdac81251608a1b604082015260600190565b90815260200190565b93845260208401929092526040830152606082015260800190565b6001600160a01b0381168114610bce57600080fdfea264697066735822122074dde2ece40678394cbad1d0bd9e712d0565a933b53113b89a62a3ffd6800fa264736f6c63430007000033",
  "immutableReferences": {},
  "source": "/*\r\n   _____            _   _            _            _____\r\n  / ____|          | | (_)          | |     /\\   |_   _|\r\n | (___   ___ _ __ | |_ _ _ __   ___| |    /  \\    | |\r\n  \\___ \\ / _ \\ '_ \\| __| | '_ \\ / _ \\ |   / /\\ \\   | |\r\n  ____) |  __/ | | | |_| | | | |  __/ |_ / ____ \\ _| |_\r\n |_____/ \\___|_| |_|\\__|_|_| |_|\\___|_(_)_/    \\_\\_____|\r\n\r\n*/\r\n\r\n// SPDX-License-Identifier: MIT\r\npragma solidity >=0.7.0 <0.8.0;\r\npragma experimental ABIEncoderV2;\r\n\r\nlibrary SafeMath {\r\n\r\n    function add(uint256 a, uint256 b) internal pure returns (uint256) {\r\n        uint256 c = a + b;\r\n        require(c >= a, \"SafeMath: addition overflow\");\r\n\r\n        return c;\r\n    }\r\n\r\n    function sub(uint256 a, uint256 b) internal pure returns (uint256) {\r\n        return sub(a, b, \"SafeMath: subtraction overflow\");\r\n    }\r\n\r\n    function sub(uint256 a, uint256 b, string memory errorMessage) internal pure returns (uint256) {\r\n        require(b <= a, errorMessage);\r\n        uint256 c = a - b;\r\n\r\n        return c;\r\n    }\r\n\r\n    function mul(uint256 a, uint256 b) internal pure returns (uint256) {\r\n        if (a == 0) {\r\n            return 0;\r\n        }\r\n\r\n        uint256 c = a * b;\r\n        require(c / a == b, \"SafeMath: multiplication overflow\");\r\n\r\n        return c;\r\n    }\r\n\r\n    function div(uint256 a, uint256 b) internal pure returns (uint256) {\r\n        return div(a, b, \"SafeMath: division by zero\");\r\n    }\r\n\r\n    function div(uint256 a, uint256 b, string memory errorMessage) internal pure returns (uint256) {\r\n        require(b > 0, errorMessage);\r\n        uint256 c = a / b;\r\n        return c;\r\n    }\r\n\r\n}\r\n\r\ncontract Sentinel {\r\n\r\n    using SafeMath for uint256;\r\n\r\n    struct Task {\r\n        uint256 taskID;\r\n        uint256 currentRound;\r\n        uint256 totalRounds;\r\n        uint256 cost;\r\n        string[] modelHashes;\r\n    }\r\n\r\n    address owner;\r\n    address coordinatorAddress;\r\n\r\n    uint256 nextTaskID = 1;\r\n    mapping (uint256 => Task) public SentinelTasks;\r\n    mapping (address => uint256[]) public UserTaskIDs;\r\n    mapping (address => string[]) public UserFiles;\r\n\r\n    event newTaskCreated(uint256 indexed taskID, address indexed _user, string _modelHash, uint256 _amt, uint256 _time);\r\n    event modelUpdated(uint256 indexed taskID, string _modelHash, uint256 _time);\r\n    event fileAdded(address indexed _user, string _fileHash, uint256 _time);\r\n\r\n    modifier onlyOwner () {\r\n      require(msg.sender == owner);\r\n      _;\r\n    }\r\n    modifier onlyCoordinator () {\r\n      require(msg.sender == coordinatorAddress);\r\n      _;\r\n    }\r\n\r\n     constructor(address _coordinatorAddress) {\r\n        owner = msg.sender;\r\n        coordinatorAddress = _coordinatorAddress;\r\n    }\r\n\r\n    function updateCoordinator(address _coordinatorAddress)\r\n        public onlyOwner\r\n    {\r\n        coordinatorAddress = _coordinatorAddress;\r\n    }\r\n\r\n    function createTask(string memory _modelHash, uint256 _rounds)\r\n        public payable\r\n    {\r\n        require(_rounds < 10, \"Number of Rounds should be less than 10\");\r\n        uint256 taskCost = msg.value;\r\n\r\n        Task memory newTask;\r\n        newTask = Task({\r\n            taskID: nextTaskID,\r\n            currentRound: 1,\r\n            totalRounds: _rounds,\r\n            cost: taskCost,\r\n            modelHashes: new string[](_rounds)\r\n        });\r\n        newTask.modelHashes[0] = _modelHash;\r\n        SentinelTasks[nextTaskID] = newTask;\r\n        UserTaskIDs[msg.sender].push(nextTaskID);\r\n        emit newTaskCreated(nextTaskID, msg.sender, _modelHash, taskCost, block.timestamp);\r\n\r\n        nextTaskID = nextTaskID.add(1);\r\n    }\r\n\r\n    function updateModelForTask(uint256 _taskID,  string memory _modelHash, address payable computer)\r\n        public onlyCoordinator\r\n    {\r\n        require(_taskID <= nextTaskID, \"Invalid Task ID\");\r\n        uint256 newRound = SentinelTasks[_taskID].currentRound.add(1);\r\n        require(newRound <= SentinelTasks[_taskID].totalRounds, \"All Rounds Completed\");\r\n\r\n\r\n        SentinelTasks[_taskID].currentRound = newRound;\r\n        SentinelTasks[_taskID].modelHashes[newRound.sub(1)] = _modelHash;\r\n        computer.transfer(SentinelTasks[_taskID].cost.div(SentinelTasks[_taskID].totalRounds));\r\n        emit modelUpdated(_taskID, _modelHash, block.timestamp);\r\n\r\n    }\r\n\r\n    function getTaskHashes(uint256 _taskID) public view returns (string[] memory) {\r\n        return (SentinelTasks[_taskID].modelHashes);\r\n    }\r\n\r\n    function getTaskCount() public view returns (uint256) {\r\n        return nextTaskID.sub(1);\r\n    }\r\n    function getTasksOfUser() public view returns (uint256[] memory) {\r\n        return UserTaskIDs[msg.sender];\r\n    }\r\n\r\n    function storeFile(string memory _fileHash) public {\r\n        UserFiles[msg.sender].push(_fileHash);\r\n        emit fileAdded(msg.sender, _fileHash, block.timestamp);\r\n    }\r\n\r\n    function getFiles() public view returns (string[] memory){\r\n        return UserFiles[msg.sender];\r\n    }\r\n\r\n}\r\n",
  "sourcePath": "C:/Users/anudit/Documents/GitHub/thesentinelai-contracts/contracts/Sentinel.sol",
  "compiler": {
    "name": "solc",
    "version": "0.7.0+commit.9e61f92b.Emscripten.clang"
  },
  "schemaVersion": "3.2.2",
  "updatedAt": "2020-08-06T04:11:57.922Z",
  "networkType": "ethereum",
  "devdoc": {
    "kind": "dev",
    "methods": {},
    "version": 1
  },
  "userdoc": {
    "kind": "user",
    "methods": {},
    "version": 1
  }
}